{
  "_format": "hh-sol-artifact-1",
  "contractName": "LifeBusinessCoin",
  "sourceName": "contracts/LifeBusinessCoin.sol",
  "abi": [
    {
      "inputs": [],
      "stateMutability": "nonpayable",
      "type": "constructor"
    },
    {
      "inputs": [],
      "name": "AccessControlBadConfirmation",
      "type": "error"
    },
    {
      "inputs": [
        {
          "internalType": "address",
          "name": "account",
          "type": "address"
        },
        {
          "internalType": "bytes32",
          "name": "neededRole",
          "type": "bytes32"
        }
      ],
      "name": "AccessControlUnauthorizedAccount",
      "type": "error"
    },
    {
      "inputs": [
        {
          "internalType": "address",
          "name": "target",
          "type": "address"
        }
      ],
      "name": "AddressEmptyCode",
      "type": "error"
    },
    {
      "inputs": [
        {
          "internalType": "address",
          "name": "implementation",
          "type": "address"
        }
      ],
      "name": "ERC1967InvalidImplementation",
      "type": "error"
    },
    {
      "inputs": [],
      "name": "ERC1967NonPayable",
      "type": "error"
    },
    {
      "inputs": [
        {
          "internalType": "address",
          "name": "spender",
          "type": "address"
        },
        {
          "internalType": "uint256",
          "name": "allowance",
          "type": "uint256"
        },
        {
          "internalType": "uint256",
          "name": "needed",
          "type": "uint256"
        }
      ],
      "name": "ERC20InsufficientAllowance",
      "type": "error"
    },
    {
      "inputs": [
        {
          "internalType": "address",
          "name": "sender",
          "type": "address"
        },
        {
          "internalType": "uint256",
          "name": "balance",
          "type": "uint256"
        },
        {
          "internalType": "uint256",
          "name": "needed",
          "type": "uint256"
        }
      ],
      "name": "ERC20InsufficientBalance",
      "type": "error"
    },
    {
      "inputs": [
        {
          "internalType": "address",
          "name": "approver",
          "type": "address"
        }
      ],
      "name": "ERC20InvalidApprover",
      "type": "error"
    },
    {
      "inputs": [
        {
          "internalType": "address",
          "name": "receiver",
          "type": "address"
        }
      ],
      "name": "ERC20InvalidReceiver",
      "type": "error"
    },
    {
      "inputs": [
        {
          "internalType": "address",
          "name": "sender",
          "type": "address"
        }
      ],
      "name": "ERC20InvalidSender",
      "type": "error"
    },
    {
      "inputs": [
        {
          "internalType": "address",
          "name": "spender",
          "type": "address"
        }
      ],
      "name": "ERC20InvalidSpender",
      "type": "error"
    },
    {
      "inputs": [],
      "name": "FailedCall",
      "type": "error"
    },
    {
      "inputs": [],
      "name": "InvalidInitialization",
      "type": "error"
    },
    {
      "inputs": [],
      "name": "NotInitializing",
      "type": "error"
    },
    {
      "inputs": [],
      "name": "ReentrancyGuardReentrantCall",
      "type": "error"
    },
    {
      "inputs": [],
      "name": "UUPSUnauthorizedCallContext",
      "type": "error"
    },
    {
      "inputs": [
        {
          "internalType": "bytes32",
          "name": "slot",
          "type": "bytes32"
        }
      ],
      "name": "UUPSUnsupportedProxiableUUID",
      "type": "error"
    },
    {
      "anonymous": false,
      "inputs": [
        {
          "indexed": true,
          "internalType": "address",
          "name": "owner",
          "type": "address"
        },
        {
          "indexed": true,
          "internalType": "address",
          "name": "spender",
          "type": "address"
        },
        {
          "indexed": false,
          "internalType": "uint256",
          "name": "value",
          "type": "uint256"
        }
      ],
      "name": "Approval",
      "type": "event"
    },
    {
      "anonymous": false,
      "inputs": [
        {
          "indexed": false,
          "internalType": "uint256",
          "name": "newBurnRate",
          "type": "uint256"
        }
      ],
      "name": "BurnRateUpdated",
      "type": "event"
    },
    {
      "anonymous": false,
      "inputs": [
        {
          "indexed": false,
          "internalType": "address",
          "name": "multiSigWallet",
          "type": "address"
        },
        {
          "indexed": false,
          "internalType": "uint256",
          "name": "initialSupply",
          "type": "uint256"
        }
      ],
      "name": "ContractInitialized",
      "type": "event"
    },
    {
      "anonymous": false,
      "inputs": [
        {
          "indexed": true,
          "internalType": "address",
          "name": "governor",
          "type": "address"
        },
        {
          "indexed": false,
          "internalType": "string",
          "name": "action",
          "type": "string"
        },
        {
          "indexed": false,
          "internalType": "uint256",
          "name": "value",
          "type": "uint256"
        }
      ],
      "name": "GovernanceAction",
      "type": "event"
    },
    {
      "anonymous": false,
      "inputs": [
        {
          "indexed": false,
          "internalType": "uint64",
          "name": "version",
          "type": "uint64"
        }
      ],
      "name": "Initialized",
      "type": "event"
    },
    {
      "anonymous": false,
      "inputs": [
        {
          "indexed": false,
          "internalType": "uint256",
          "name": "newLimit",
          "type": "uint256"
        }
      ],
      "name": "MintingLimitUpdated",
      "type": "event"
    },
    {
      "anonymous": false,
      "inputs": [
        {
          "indexed": false,
          "internalType": "uint256",
          "name": "newPeriod",
          "type": "uint256"
        }
      ],
      "name": "MintingPeriodUpdated",
      "type": "event"
    },
    {
      "anonymous": false,
      "inputs": [
        {
          "indexed": true,
          "internalType": "bytes32",
          "name": "role",
          "type": "bytes32"
        },
        {
          "indexed": true,
          "internalType": "bytes32",
          "name": "previousAdminRole",
          "type": "bytes32"
        },
        {
          "indexed": true,
          "internalType": "bytes32",
          "name": "newAdminRole",
          "type": "bytes32"
        }
      ],
      "name": "RoleAdminChanged",
      "type": "event"
    },
    {
      "anonymous": false,
      "inputs": [
        {
          "indexed": true,
          "internalType": "bytes32",
          "name": "role",
          "type": "bytes32"
        },
        {
          "indexed": true,
          "internalType": "address",
          "name": "account",
          "type": "address"
        },
        {
          "indexed": true,
          "internalType": "address",
          "name": "sender",
          "type": "address"
        }
      ],
      "name": "RoleGranted",
      "type": "event"
    },
    {
      "anonymous": false,
      "inputs": [
        {
          "indexed": true,
          "internalType": "bytes32",
          "name": "role",
          "type": "bytes32"
        },
        {
          "indexed": true,
          "internalType": "address",
          "name": "account",
          "type": "address"
        },
        {
          "indexed": true,
          "internalType": "address",
          "name": "sender",
          "type": "address"
        }
      ],
      "name": "RoleRevoked",
      "type": "event"
    },
    {
      "anonymous": false,
      "inputs": [
        {
          "indexed": false,
          "internalType": "uint256",
          "name": "newTemporaryBurnRate",
          "type": "uint256"
        }
      ],
      "name": "TemporaryBurnRateUpdated",
      "type": "event"
    },
    {
      "anonymous": false,
      "inputs": [
        {
          "indexed": true,
          "internalType": "address",
          "name": "from",
          "type": "address"
        },
        {
          "indexed": false,
          "internalType": "uint256",
          "name": "amount",
          "type": "uint256"
        }
      ],
      "name": "TokensBurned",
      "type": "event"
    },
    {
      "anonymous": false,
      "inputs": [
        {
          "indexed": true,
          "internalType": "address",
          "name": "to",
          "type": "address"
        },
        {
          "indexed": false,
          "internalType": "uint256",
          "name": "amount",
          "type": "uint256"
        }
      ],
      "name": "TokensMinted",
      "type": "event"
    },
    {
      "anonymous": false,
      "inputs": [
        {
          "indexed": true,
          "internalType": "address",
          "name": "from",
          "type": "address"
        },
        {
          "indexed": true,
          "internalType": "address",
          "name": "to",
          "type": "address"
        },
        {
          "indexed": false,
          "internalType": "uint256",
          "name": "value",
          "type": "uint256"
        }
      ],
      "name": "Transfer",
      "type": "event"
    },
    {
      "anonymous": false,
      "inputs": [
        {
          "indexed": true,
          "internalType": "address",
          "name": "implementation",
          "type": "address"
        }
      ],
      "name": "Upgraded",
      "type": "event"
    },
    {
      "inputs": [],
      "name": "BURNER_ROLE",
      "outputs": [
        {
          "internalType": "bytes32",
          "name": "",
          "type": "bytes32"
        }
      ],
      "stateMutability": "view",
      "type": "function"
    },
    {
      "inputs": [],
      "name": "BURN_RATE_PRECISION",
      "outputs": [
        {
          "internalType": "uint256",
          "name": "",
          "type": "uint256"
        }
      ],
      "stateMutability": "view",
      "type": "function"
    },
    {
      "inputs": [],
      "name": "DEFAULT_ADMIN_ROLE",
      "outputs": [
        {
          "internalType": "bytes32",
          "name": "",
          "type": "bytes32"
        }
      ],
      "stateMutability": "view",
      "type": "function"
    },
    {
      "inputs": [],
      "name": "GOVERNOR_ROLE",
      "outputs": [
        {
          "internalType": "bytes32",
          "name": "",
          "type": "bytes32"
        }
      ],
      "stateMutability": "view",
      "type": "function"
    },
    {
      "inputs": [],
      "name": "INITIAL_SUPPLY",
      "outputs": [
        {
          "internalType": "uint256",
          "name": "",
          "type": "uint256"
        }
      ],
      "stateMutability": "view",
      "type": "function"
    },
    {
      "inputs": [],
      "name": "MAX_SUPPLY",
      "outputs": [
        {
          "internalType": "uint256",
          "name": "",
          "type": "uint256"
        }
      ],
      "stateMutability": "view",
      "type": "function"
    },
    {
      "inputs": [],
      "name": "MINTER_ROLE",
      "outputs": [
        {
          "internalType": "bytes32",
          "name": "",
          "type": "bytes32"
        }
      ],
      "stateMutability": "view",
      "type": "function"
    },
    {
      "inputs": [],
      "name": "MINT_CAP",
      "outputs": [
        {
          "internalType": "uint256",
          "name": "",
          "type": "uint256"
        }
      ],
      "stateMutability": "view",
      "type": "function"
    },
    {
      "inputs": [],
      "name": "UPGRADE_INTERFACE_VERSION",
      "outputs": [
        {
          "internalType": "string",
          "name": "",
          "type": "string"
        }
      ],
      "stateMutability": "view",
      "type": "function"
    },
    {
      "inputs": [
        {
          "internalType": "address",
          "name": "owner",
          "type": "address"
        },
        {
          "internalType": "address",
          "name": "spender",
          "type": "address"
        }
      ],
      "name": "allowance",
      "outputs": [
        {
          "internalType": "uint256",
          "name": "",
          "type": "uint256"
        }
      ],
      "stateMutability": "view",
      "type": "function"
    },
    {
      "inputs": [
        {
          "internalType": "address",
          "name": "spender",
          "type": "address"
        },
        {
          "internalType": "uint256",
          "name": "value",
          "type": "uint256"
        }
      ],
      "name": "approve",
      "outputs": [
        {
          "internalType": "bool",
          "name": "",
          "type": "bool"
        }
      ],
      "stateMutability": "nonpayable",
      "type": "function"
    },
    {
      "inputs": [
        {
          "internalType": "address",
          "name": "account",
          "type": "address"
        }
      ],
      "name": "balanceOf",
      "outputs": [
        {
          "internalType": "uint256",
          "name": "",
          "type": "uint256"
        }
      ],
      "stateMutability": "view",
      "type": "function"
    },
    {
      "inputs": [
        {
          "internalType": "uint256",
          "name": "amount",
          "type": "uint256"
        }
      ],
      "name": "burn",
      "outputs": [],
      "stateMutability": "nonpayable",
      "type": "function"
    },
    {
      "inputs": [],
      "name": "burnRate",
      "outputs": [
        {
          "internalType": "uint256",
          "name": "",
          "type": "uint256"
        }
      ],
      "stateMutability": "view",
      "type": "function"
    },
    {
      "inputs": [],
      "name": "decimals",
      "outputs": [
        {
          "internalType": "uint8",
          "name": "",
          "type": "uint8"
        }
      ],
      "stateMutability": "view",
      "type": "function"
    },
    {
      "inputs": [
        {
          "internalType": "bytes32",
          "name": "role",
          "type": "bytes32"
        }
      ],
      "name": "getRoleAdmin",
      "outputs": [
        {
          "internalType": "bytes32",
          "name": "",
          "type": "bytes32"
        }
      ],
      "stateMutability": "view",
      "type": "function"
    },
    {
      "inputs": [
        {
          "internalType": "bytes32",
          "name": "role",
          "type": "bytes32"
        },
        {
          "internalType": "address",
          "name": "account",
          "type": "address"
        }
      ],
      "name": "grantRole",
      "outputs": [],
      "stateMutability": "nonpayable",
      "type": "function"
    },
    {
      "inputs": [
        {
          "internalType": "bytes32",
          "name": "role",
          "type": "bytes32"
        },
        {
          "internalType": "address",
          "name": "account",
          "type": "address"
        }
      ],
      "name": "hasRole",
      "outputs": [
        {
          "internalType": "bool",
          "name": "",
          "type": "bool"
        }
      ],
      "stateMutability": "view",
      "type": "function"
    },
    {
      "inputs": [
        {
          "internalType": "address",
          "name": "_multiSigWallet",
          "type": "address"
        }
      ],
      "name": "initialize",
      "outputs": [],
      "stateMutability": "nonpayable",
      "type": "function"
    },
    {
      "inputs": [],
      "name": "lastMintTime",
      "outputs": [
        {
          "internalType": "uint256",
          "name": "",
          "type": "uint256"
        }
      ],
      "stateMutability": "view",
      "type": "function"
    },
    {
      "inputs": [
        {
          "internalType": "address",
          "name": "to",
          "type": "address"
        },
        {
          "internalType": "uint256",
          "name": "amount",
          "type": "uint256"
        }
      ],
      "name": "mint",
      "outputs": [],
      "stateMutability": "nonpayable",
      "type": "function"
    },
    {
      "inputs": [],
      "name": "mintingAllowed",
      "outputs": [
        {
          "internalType": "bool",
          "name": "",
          "type": "bool"
        }
      ],
      "stateMutability": "view",
      "type": "function"
    },
    {
      "inputs": [],
      "name": "mintingLimit",
      "outputs": [
        {
          "internalType": "uint256",
          "name": "",
          "type": "uint256"
        }
      ],
      "stateMutability": "view",
      "type": "function"
    },
    {
      "inputs": [],
      "name": "mintingPeriod",
      "outputs": [
        {
          "internalType": "uint256",
          "name": "",
          "type": "uint256"
        }
      ],
      "stateMutability": "view",
      "type": "function"
    },
    {
      "inputs": [],
      "name": "multiSigWallet",
      "outputs": [
        {
          "internalType": "address",
          "name": "",
          "type": "address"
        }
      ],
      "stateMutability": "view",
      "type": "function"
    },
    {
      "inputs": [],
      "name": "name",
      "outputs": [
        {
          "internalType": "string",
          "name": "",
          "type": "string"
        }
      ],
      "stateMutability": "view",
      "type": "function"
    },
    {
      "inputs": [],
      "name": "nextMintTime",
      "outputs": [
        {
          "internalType": "uint256",
          "name": "",
          "type": "uint256"
        }
      ],
      "stateMutability": "view",
      "type": "function"
    },
    {
      "inputs": [],
      "name": "proxiableUUID",
      "outputs": [
        {
          "internalType": "bytes32",
          "name": "",
          "type": "bytes32"
        }
      ],
      "stateMutability": "view",
      "type": "function"
    },
    {
      "inputs": [
        {
          "internalType": "bytes32",
          "name": "role",
          "type": "bytes32"
        },
        {
          "internalType": "address",
          "name": "callerConfirmation",
          "type": "address"
        }
      ],
      "name": "renounceRole",
      "outputs": [],
      "stateMutability": "nonpayable",
      "type": "function"
    },
    {
      "inputs": [],
      "name": "resetTemporaryBurnRate",
      "outputs": [],
      "stateMutability": "nonpayable",
      "type": "function"
    },
    {
      "inputs": [
        {
          "internalType": "bytes32",
          "name": "role",
          "type": "bytes32"
        },
        {
          "internalType": "address",
          "name": "account",
          "type": "address"
        }
      ],
      "name": "revokeRole",
      "outputs": [],
      "stateMutability": "nonpayable",
      "type": "function"
    },
    {
      "inputs": [
        {
          "internalType": "uint256",
          "name": "newBurnRate",
          "type": "uint256"
        }
      ],
      "name": "setBurnRate",
      "outputs": [],
      "stateMutability": "nonpayable",
      "type": "function"
    },
    {
      "inputs": [
        {
          "internalType": "uint256",
          "name": "newLimit",
          "type": "uint256"
        }
      ],
      "name": "setMintingLimit",
      "outputs": [],
      "stateMutability": "nonpayable",
      "type": "function"
    },
    {
      "inputs": [
        {
          "internalType": "uint256",
          "name": "newPeriod",
          "type": "uint256"
        }
      ],
      "name": "setMintingPeriod",
      "outputs": [],
      "stateMutability": "nonpayable",
      "type": "function"
    },
    {
      "inputs": [
        {
          "internalType": "uint256",
          "name": "newTemporaryBurnRate",
          "type": "uint256"
        }
      ],
      "name": "setTemporaryBurnRate",
      "outputs": [],
      "stateMutability": "nonpayable",
      "type": "function"
    },
    {
      "inputs": [
        {
          "internalType": "bytes4",
          "name": "interfaceId",
          "type": "bytes4"
        }
      ],
      "name": "supportsInterface",
      "outputs": [
        {
          "internalType": "bool",
          "name": "",
          "type": "bool"
        }
      ],
      "stateMutability": "view",
      "type": "function"
    },
    {
      "inputs": [],
      "name": "symbol",
      "outputs": [
        {
          "internalType": "string",
          "name": "",
          "type": "string"
        }
      ],
      "stateMutability": "view",
      "type": "function"
    },
    {
      "inputs": [],
      "name": "temporaryBurnRate",
      "outputs": [
        {
          "internalType": "uint256",
          "name": "",
          "type": "uint256"
        }
      ],
      "stateMutability": "view",
      "type": "function"
    },
    {
      "inputs": [],
      "name": "totalMinted",
      "outputs": [
        {
          "internalType": "uint256",
          "name": "",
          "type": "uint256"
        }
      ],
      "stateMutability": "view",
      "type": "function"
    },
    {
      "inputs": [],
      "name": "totalSupply",
      "outputs": [
        {
          "internalType": "uint256",
          "name": "",
          "type": "uint256"
        }
      ],
      "stateMutability": "view",
      "type": "function"
    },
    {
      "inputs": [],
      "name": "totalSupplyCap",
      "outputs": [
        {
          "internalType": "uint256",
          "name": "",
          "type": "uint256"
        }
      ],
      "stateMutability": "view",
      "type": "function"
    },
    {
      "inputs": [
        {
          "internalType": "address",
          "name": "to",
          "type": "address"
        },
        {
          "internalType": "uint256",
          "name": "value",
          "type": "uint256"
        }
      ],
      "name": "transfer",
      "outputs": [
        {
          "internalType": "bool",
          "name": "",
          "type": "bool"
        }
      ],
      "stateMutability": "nonpayable",
      "type": "function"
    },
    {
      "inputs": [
        {
          "internalType": "address",
          "name": "from",
          "type": "address"
        },
        {
          "internalType": "address",
          "name": "to",
          "type": "address"
        },
        {
          "internalType": "uint256",
          "name": "value",
          "type": "uint256"
        }
      ],
      "name": "transferFrom",
      "outputs": [
        {
          "internalType": "bool",
          "name": "",
          "type": "bool"
        }
      ],
      "stateMutability": "nonpayable",
      "type": "function"
    },
    {
      "inputs": [
        {
          "internalType": "address",
          "name": "newImplementation",
          "type": "address"
        },
        {
          "internalType": "bytes",
          "name": "data",
          "type": "bytes"
        }
      ],
      "name": "upgradeToAndCall",
      "outputs": [],
      "stateMutability": "payable",
      "type": "function"
    }
  ],
  "bytecode": "0x60a06040523073ffffffffffffffffffffffffffffffffffffffff1660809073ffffffffffffffffffffffffffffffffffffffff168152503480156200004457600080fd5b50620000556200005b60201b60201c565b620001cf565b60006200006d6200016560201b60201c565b90508060000160089054906101000a900460ff1615620000b9576040517ff92ee8a900000000000000000000000000000000000000000000000000000000815260040160405180910390fd5b67ffffffffffffffff80168160000160009054906101000a900467ffffffffffffffff1667ffffffffffffffff1614620001625767ffffffffffffffff8160000160006101000a81548167ffffffffffffffff021916908367ffffffffffffffff1602179055507fc7f505b2f371ae2175ee4913f4499e1f2633a7b5936321eed1cdaeb6115181d267ffffffffffffffff604051620001599190620001b2565b60405180910390a15b50565b60007ff0c57e16840df040f15088dc2f81fe391c3923bec73e23a9662efc9c229c6a00905090565b600067ffffffffffffffff82169050919050565b620001ac816200018d565b82525050565b6000602082019050620001c96000830184620001a1565b92915050565b608051614488620001f9600039600081816123df01528181612434015261261201526144886000f3fe6080604052600436106102675760003560e01c806352d1902d11610144578063a9059cbb116100b6578063ccc574901161007a578063ccc574901461092d578063d539139314610958578063d547741f14610983578063d9c9adc3146109ac578063dd62ed3e146109d5578063fd0d5f9e14610a1257610267565b8063a9059cbb14610846578063ad3cb1cc14610883578063bb102aea146108ae578063bed99850146108d9578063c4d66de81461090457610267565b806395d89b411161010857806395d89b411461074457806396532d1c1461076f57806398f1312e1461079a5780639d463520146107c5578063a217fddf146107f0578063a2309ff81461081b57610267565b806352d1902d1461064957806370a0823114610674578063739ec292146106b15780638c4e8c21146106dc57806391d148541461070757610267565b8063300e1061116101dd57806342966c68116101a157806342966c681461055a57806348fd35121461058357806349072f12146105ac5780634b8feb4f146105d75780634c1390e5146106025780634f1ef2861461062d57610267565b8063300e106114610487578063313ce567146104b257806332cb6b0c146104dd57806336568abe1461050857806340c10f191461053157610267565b806323b872dd1161022f57806323b872dd14610365578063248a9ca3146103a2578063282c51f3146103df5780632f22c5a81461040a5780632f2ff15d146104335780632ff2e9dc1461045c57610267565b806301ffc9a71461026c57806306fdde03146102a9578063095ea7b3146102d457806318160ddd14610311578063189d165e1461033c575b600080fd5b34801561027857600080fd5b50610293600480360381019061028e9190613063565b610a29565b6040516102a091906130ab565b60405180910390f35b3480156102b557600080fd5b506102be610a3b565b6040516102cb9190613156565b60405180910390f35b3480156102e057600080fd5b506102fb60048036038101906102f6919061320c565b610adc565b60405161030891906130ab565b60405180910390f35b34801561031d57600080fd5b50610326610aff565b604051610333919061325b565b60405180910390f35b34801561034857600080fd5b50610363600480360381019061035e9190613276565b610b17565b005b34801561037157600080fd5b5061038c600480360381019061038791906132a3565b610c15565b60405161039991906130ab565b60405180910390f35b3480156103ae57600080fd5b506103c960048036038101906103c4919061332c565b610c44565b6040516103d69190613368565b60405180910390f35b3480156103eb57600080fd5b506103f4610c72565b6040516104019190613368565b60405180910390f35b34801561041657600080fd5b50610431600480360381019061042c9190613276565b610c96565b005b34801561043f57600080fd5b5061045a60048036038101906104559190613383565b610d94565b005b34801561046857600080fd5b50610471610db6565b60405161047e919061325b565b60405180910390f35b34801561049357600080fd5b5061049c610dc4565b6040516104a9919061325b565b60405180910390f35b3480156104be57600080fd5b506104c7610dd0565b6040516104d491906133df565b60405180910390f35b3480156104e957600080fd5b506104f2610dd9565b6040516104ff919061325b565b60405180910390f35b34801561051457600080fd5b5061052f600480360381019061052a9190613383565b610de8565b005b34801561053d57600080fd5b506105586004803603810190610553919061320c565b610e63565b005b34801561056657600080fd5b50610581600480360381019061057c9190613276565b611169565b005b34801561058f57600080fd5b506105aa60048036038101906105a59190613276565b6112a5565b005b3480156105b857600080fd5b506105c16113b6565b6040516105ce919061325b565b60405180910390f35b3480156105e357600080fd5b506105ec6113bc565b6040516105f99190613409565b60405180910390f35b34801561060e57600080fd5b506106176113e2565b604051610624919061325b565b60405180910390f35b61064760048036038101906106429190613559565b6113e8565b005b34801561065557600080fd5b5061065e611407565b60405161066b9190613368565b60405180910390f35b34801561068057600080fd5b5061069b600480360381019061069691906135b5565b61143a565b6040516106a8919061325b565b60405180910390f35b3480156106bd57600080fd5b506106c6611491565b6040516106d3919061325b565b60405180910390f35b3480156106e857600080fd5b506106f1611497565b6040516106fe919061325b565b60405180910390f35b34801561071357600080fd5b5061072e60048036038101906107299190613383565b61149d565b60405161073b91906130ab565b60405180910390f35b34801561075057600080fd5b50610759611516565b6040516107669190613156565b60405180910390f35b34801561077b57600080fd5b506107846115b7565b60405161079191906130ab565b60405180910390f35b3480156107a657600080fd5b506107af6115ca565b6040516107bc919061325b565b60405180910390f35b3480156107d157600080fd5b506107da6115d9565b6040516107e7919061325b565b60405180910390f35b3480156107fc57600080fd5b506108056115df565b6040516108129190613368565b60405180910390f35b34801561082757600080fd5b506108306115e6565b60405161083d919061325b565b60405180910390f35b34801561085257600080fd5b5061086d6004803603810190610868919061320c565b6115ec565b60405161087a91906130ab565b60405180910390f35b34801561088f57600080fd5b5061089861160f565b6040516108a59190613156565b60405180910390f35b3480156108ba57600080fd5b506108c3611648565b6040516108d0919061325b565b60405180910390f35b3480156108e557600080fd5b506108ee61164e565b6040516108fb919061325b565b60405180910390f35b34801561091057600080fd5b5061092b600480360381019061092691906135b5565b611654565b005b34801561093957600080fd5b50610942611b2d565b60405161094f9190613368565b60405180910390f35b34801561096457600080fd5b5061096d611b51565b60405161097a9190613368565b60405180910390f35b34801561098f57600080fd5b506109aa60048036038101906109a59190613383565b611b75565b005b3480156109b857600080fd5b506109d360048036038101906109ce9190613276565b611b97565b005b3480156109e157600080fd5b506109fc60048036038101906109f791906135e2565b611c94565b604051610a09919061325b565b60405180910390f35b348015610a1e57600080fd5b50610a27611d29565b005b6000610a3482611de5565b9050919050565b60606000610a47611e5f565b9050806003018054610a5890613651565b80601f0160208091040260200160405190810160405280929190818152602001828054610a8490613651565b8015610ad15780601f10610aa657610100808354040283529160200191610ad1565b820191906000526020600020905b815481529060010190602001808311610ab457829003601f168201915b505050505091505090565b600080610ae7611e87565b9050610af4818585611e8f565b600191505092915050565b600080610b0a611e5f565b9050806002015491505090565b7f7935bd0ae54bc31f548c14dba4d37c5c64b3f8ca900cb468fb8abd54d5894f55610b4181611ea1565b6064821115610b85576040517f08c379a0000000000000000000000000000000000000000000000000000000008152600401610b7c906136ce565b60405180910390fd5b816001819055507f47863b595116a31383855975a4078913dce7881e717b75a06ced2db5d534ff7882604051610bbb919061325b565b60405180910390a13373ffffffffffffffffffffffffffffffffffffffff167fe375685a3bb4ee620edeb8aa5214343508042f05cdf243fe1980595a9743fbff83604051610c09919061373a565b60405180910390a25050565b600080610c20611e87565b9050610c2d858285611eb5565b610c38858585611f4a565b60019150509392505050565b600080610c4f61203e565b905080600001600084815260200190815260200160002060010154915050919050565b7f3c11d16cbaffd01df69ce1c404f6340ee057498f5f00246190ea54220576a84881565b7f7935bd0ae54bc31f548c14dba4d37c5c64b3f8ca900cb468fb8abd54d5894f55610cc081611ea1565b6064821115610d04576040517f08c379a0000000000000000000000000000000000000000000000000000000008152600401610cfb906137da565b60405180910390fd5b816002819055507f40c33b1f2086a9d6bccb8198646b02ce70faf9bfdc87e03c8599ed67cce13cc182604051610d3a919061325b565b60405180910390a13373ffffffffffffffffffffffffffffffffffffffff167fe375685a3bb4ee620edeb8aa5214343508042f05cdf243fe1980595a9743fbff83604051610d889190613846565b60405180910390a25050565b610d9d82610c44565b610da681611ea1565b610db08383612066565b50505050565b69d3c21bcecceda100000081565b670de0b6b3a764000081565b60006012905090565b6a084595161401484a00000081565b610df0611e87565b73ffffffffffffffffffffffffffffffffffffffff168173ffffffffffffffffffffffffffffffffffffffff1614610e54576040517f6697b23200000000000000000000000000000000000000000000000000000000815260040160405180910390fd5b610e5e8282612167565b505050565b7f9f2df0fed2c77648de5860a4cc508cd0818c85b8b8a1ab4ceeef8d981c8956a6610e8d81611ea1565b610e95612269565b600360009054906101000a900460ff16610ee4576040517f08c379a0000000000000000000000000000000000000000000000000000000008152600401610edb906138c0565b60405180910390fd5b60008211610f27576040517f08c379a0000000000000000000000000000000000000000000000000000000008152600401610f1e90613952565b60405180910390fd5b60085482610f33610aff565b610f3d91906139a1565b1115610f7e576040517f08c379a0000000000000000000000000000000000000000000000000000000008152600401610f7590613a21565b60405180910390fd5b600654821115610fc3576040517f08c379a0000000000000000000000000000000000000000000000000000000008152600401610fba90613a8d565b60405180910390fd5b600554421015611008576040517f08c379a0000000000000000000000000000000000000000000000000000000008152600401610fff90613af9565b60405180910390fd5b600060025460015461101a91906139a1565b905060006064828561102c9190613b19565b6110369190613b8a565b9050600081856110469190613bbb565b905060008211156110c25761105b33836122c0565b8160008082825461106c9190613bbb565b925050819055503373ffffffffffffffffffffffffffffffffffffffff167ffd38818f5291bf0bb3a2a48aadc06ba8757865d1dabd804585338aab3009dcb6836040516110b9919061325b565b60405180910390a25b6000811115611159576110d58682612342565b806000808282546110e691906139a1565b925050819055504260048190555060075460045461110491906139a1565b6005819055508573ffffffffffffffffffffffffffffffffffffffff167f3f2c9d57c068687834f0de942a9babb9e5acab57d516d3480a3c16ee165a427382604051611150919061325b565b60405180910390a25b5050506111646123c4565b505050565b7f3c11d16cbaffd01df69ce1c404f6340ee057498f5f00246190ea54220576a84861119381611ea1565b61119b612269565b600082116111de576040517f08c379a00000000000000000000000000000000000000000000000000000000081526004016111d590613c61565b60405180910390fd5b6111e73361143a565b821115611229576040517f08c379a000000000000000000000000000000000000000000000000000000000815260040161122090613ccd565b60405180910390fd5b61123333836122c0565b816000808282546112449190613bbb565b925050819055503373ffffffffffffffffffffffffffffffffffffffff167ffd38818f5291bf0bb3a2a48aadc06ba8757865d1dabd804585338aab3009dcb683604051611291919061325b565b60405180910390a26112a16123c4565b5050565b7f7935bd0ae54bc31f548c14dba4d37c5c64b3f8ca900cb468fb8abd54d5894f556112cf81611ea1565b60008211611312576040517f08c379a000000000000000000000000000000000000000000000000000000000815260040161130990613d5f565b60405180910390fd5b816007819055508160045461132791906139a1565b6005819055507ff544ff1f798e8d40801c8b0549da4a65156d7ab054c02d60cc8d62560e7a792c8260405161135c919061325b565b60405180910390a13373ffffffffffffffffffffffffffffffffffffffff167fe375685a3bb4ee620edeb8aa5214343508042f05cdf243fe1980595a9743fbff836040516113aa9190613dcb565b60405180910390a25050565b60065481565b600960009054906101000a900473ffffffffffffffffffffffffffffffffffffffff1681565b60025481565b6113f06123dd565b6113f9826124c3565b61140382826124f1565b5050565b6000611411612610565b7f360894a13ba1a3210667c828492db98dca3e2076cc3735a920a3ca505d382bbc60001b905090565b600080611445611e5f565b90508060000160008473ffffffffffffffffffffffffffffffffffffffff1673ffffffffffffffffffffffffffffffffffffffff16815260200190815260200160002054915050919050565b60075481565b60055481565b6000806114a861203e565b905080600001600085815260200190815260200160002060000160008473ffffffffffffffffffffffffffffffffffffffff1673ffffffffffffffffffffffffffffffffffffffff16815260200190815260200160002060009054906101000a900460ff1691505092915050565b60606000611522611e5f565b905080600401805461153390613651565b80601f016020809104026020016040519081016040528092919081815260200182805461155f90613651565b80156115ac5780601f10611581576101008083540402835291602001916115ac565b820191906000526020600020905b81548152906001019060200180831161158f57829003601f168201915b505050505091505090565b600360009054906101000a900460ff1681565b6a0422ca8b0a00a42500000081565b60045481565b6000801b81565b60005481565b6000806115f7611e87565b9050611604818585611f4a565b600191505092915050565b6040518060400160405280600581526020017f352e302e3000000000000000000000000000000000000000000000000000000081525081565b60085481565b60015481565b600061165e612697565b905060008160000160089054906101000a900460ff1615905060008260000160009054906101000a900467ffffffffffffffff1690506000808267ffffffffffffffff161480156116ac5750825b9050600060018367ffffffffffffffff161480156116e1575060003073ffffffffffffffffffffffffffffffffffffffff163b145b9050811580156116ef575080155b15611726576040517ff92ee8a900000000000000000000000000000000000000000000000000000000815260040160405180910390fd5b60018560000160006101000a81548167ffffffffffffffff021916908367ffffffffffffffff16021790555083156117765760018560000160086101000a81548160ff0219169083151502179055505b600073ffffffffffffffffffffffffffffffffffffffff168673ffffffffffffffffffffffffffffffffffffffff16036117e5576040517f08c379a00000000000000000000000000000000000000000000000000000000081526004016117dc90613e45565b60405180910390fd5b6118596040518060400160405280601181526020017f4c696665427573696e65737320436f696e0000000000000000000000000000008152506040518060400160405280600481526020017f4c42434f000000000000000000000000000000000000000000000000000000008152506126bf565b6118616126d5565b6118696126df565b6118716126f1565b85600960006101000a81548173ffffffffffffffffffffffffffffffffffffffff021916908373ffffffffffffffffffffffffffffffffffffffff16021790555069d3c21bcecceda1000000600081905550600060018190555060006002819055506001600360006101000a81548160ff0219169083151502179055504260048190555062278d0060045461190691906139a1565b60058190555069152d02c7e14af680000060068190555062278d006007819055506a084595161401484a0000006008819055506119686000801b600960009054906101000a900473ffffffffffffffffffffffffffffffffffffffff16612066565b506119b57f7935bd0ae54bc31f548c14dba4d37c5c64b3f8ca900cb468fb8abd54d5894f55600960009054906101000a900473ffffffffffffffffffffffffffffffffffffffff16612066565b50611a027f9f2df0fed2c77648de5860a4cc508cd0818c85b8b8a1ab4ceeef8d981c8956a6600960009054906101000a900473ffffffffffffffffffffffffffffffffffffffff16612066565b50611a4f7f3c11d16cbaffd01df69ce1c404f6340ee057498f5f00246190ea54220576a848600960009054906101000a900473ffffffffffffffffffffffffffffffffffffffff16612066565b50611a86600960009054906101000a900473ffffffffffffffffffffffffffffffffffffffff1669d3c21bcecceda1000000612342565b7f290a9d1bd9a992a26d178f5f8d2514edd099295c4ce6340dc3b7f441530cf3e88669d3c21bcecceda1000000604051611ac1929190613e65565b60405180910390a18315611b255760008560000160086101000a81548160ff0219169083151502179055507fc7f505b2f371ae2175ee4913f4499e1f2633a7b5936321eed1cdaeb6115181d26001604051611b1c9190613ee7565b60405180910390a15b505050505050565b7f7935bd0ae54bc31f548c14dba4d37c5c64b3f8ca900cb468fb8abd54d5894f5581565b7f9f2df0fed2c77648de5860a4cc508cd0818c85b8b8a1ab4ceeef8d981c8956a681565b611b7e82610c44565b611b8781611ea1565b611b918383612167565b50505050565b7f7935bd0ae54bc31f548c14dba4d37c5c64b3f8ca900cb468fb8abd54d5894f55611bc181611ea1565b60008211611c04576040517f08c379a0000000000000000000000000000000000000000000000000000000008152600401611bfb90613f74565b60405180910390fd5b816006819055507f876c61ade8d7fbb62356eefa0f1cb0d6d95fc5269dbe8d0d636051daa88d739982604051611c3a919061325b565b60405180910390a13373ffffffffffffffffffffffffffffffffffffffff167fe375685a3bb4ee620edeb8aa5214343508042f05cdf243fe1980595a9743fbff83604051611c889190613fe0565b60405180910390a25050565b600080611c9f611e5f565b90508060010160008573ffffffffffffffffffffffffffffffffffffffff1673ffffffffffffffffffffffffffffffffffffffff16815260200190815260200160002060008473ffffffffffffffffffffffffffffffffffffffff1673ffffffffffffffffffffffffffffffffffffffff1681526020019081526020016000205491505092915050565b7f7935bd0ae54bc31f548c14dba4d37c5c64b3f8ca900cb468fb8abd54d5894f55611d5381611ea1565b60006002819055507f40c33b1f2086a9d6bccb8198646b02ce70faf9bfdc87e03c8599ed67cce13cc16000604051611d8b9190614049565b60405180910390a13373ffffffffffffffffffffffffffffffffffffffff167fe375685a3bb4ee620edeb8aa5214343508042f05cdf243fe1980595a9743fbff6000604051611dda91906140b0565b60405180910390a250565b60007f7965db0b000000000000000000000000000000000000000000000000000000007bffffffffffffffffffffffffffffffffffffffffffffffffffffffff1916827bffffffffffffffffffffffffffffffffffffffffffffffffffffffff19161480611e585750611e57826126fb565b5b9050919050565b60007f52c63247e1f47db19d5ce0460030c497f067ca4cebf71ba98eeadabe20bace00905090565b600033905090565b611e9c8383836001612765565b505050565b611eb281611ead611e87565b61294b565b50565b6000611ec18484611c94565b90507fffffffffffffffffffffffffffffffffffffffffffffffffffffffffffffffff811015611f445781811015611f34578281836040517ffb8f41b2000000000000000000000000000000000000000000000000000000008152600401611f2b939291906140de565b60405180910390fd5b611f4384848484036000612765565b5b50505050565b600073ffffffffffffffffffffffffffffffffffffffff168373ffffffffffffffffffffffffffffffffffffffff1603611fbc5760006040517f96c6fd1e000000000000000000000000000000000000000000000000000000008152600401611fb39190613409565b60405180910390fd5b600073ffffffffffffffffffffffffffffffffffffffff168273ffffffffffffffffffffffffffffffffffffffff160361202e5760006040517fec442f050000000000000000000000000000000000000000000000000000000081526004016120259190613409565b60405180910390fd5b61203983838361299c565b505050565b60007f02dd7bc7dec4dceedda775e58dd541e08a116c6c53815c0bd028192f7b626800905090565b60008061207161203e565b905061207d848461149d565b61215b57600181600001600086815260200190815260200160002060000160008573ffffffffffffffffffffffffffffffffffffffff1673ffffffffffffffffffffffffffffffffffffffff16815260200190815260200160002060006101000a81548160ff0219169083151502179055506120f7611e87565b73ffffffffffffffffffffffffffffffffffffffff168373ffffffffffffffffffffffffffffffffffffffff16857f2f8788117e7eff1d82e926ec794901d17c78024a50270940304540a733656f0d60405160405180910390a46001915050612161565b60009150505b92915050565b60008061217261203e565b905061217e848461149d565b1561225d57600081600001600086815260200190815260200160002060000160008573ffffffffffffffffffffffffffffffffffffffff1673ffffffffffffffffffffffffffffffffffffffff16815260200190815260200160002060006101000a81548160ff0219169083151502179055506121f9611e87565b73ffffffffffffffffffffffffffffffffffffffff168373ffffffffffffffffffffffffffffffffffffffff16857ff6391f5c32d9c69d2a47ea670b442974b53935d1edc7fd64eb21e047a839171b60405160405180910390a46001915050612263565b60009150505b92915050565b6000612273612bdb565b905060028160000154036122b3576040517f3ee5aeb500000000000000000000000000000000000000000000000000000000815260040160405180910390fd5b6002816000018190555050565b600073ffffffffffffffffffffffffffffffffffffffff168273ffffffffffffffffffffffffffffffffffffffff16036123325760006040517f96c6fd1e0000000000000000000000000000000000000000000000000000000081526004016123299190613409565b60405180910390fd5b61233e8260008361299c565b5050565b600073ffffffffffffffffffffffffffffffffffffffff168273ffffffffffffffffffffffffffffffffffffffff16036123b45760006040517fec442f050000000000000000000000000000000000000000000000000000000081526004016123ab9190613409565b60405180910390fd5b6123c06000838361299c565b5050565b60006123ce612bdb565b90506001816000018190555050565b7f000000000000000000000000000000000000000000000000000000000000000073ffffffffffffffffffffffffffffffffffffffff163073ffffffffffffffffffffffffffffffffffffffff16148061248a57507f000000000000000000000000000000000000000000000000000000000000000073ffffffffffffffffffffffffffffffffffffffff16612471612c03565b73ffffffffffffffffffffffffffffffffffffffff1614155b156124c1576040517fe07c8dba00000000000000000000000000000000000000000000000000000000815260040160405180910390fd5b565b7f7935bd0ae54bc31f548c14dba4d37c5c64b3f8ca900cb468fb8abd54d5894f556124ed81611ea1565b5050565b8173ffffffffffffffffffffffffffffffffffffffff166352d1902d6040518163ffffffff1660e01b8152600401602060405180830381865afa92505050801561255957506040513d601f19601f82011682018060405250810190612556919061412a565b60015b61259a57816040517f4c9c8ce30000000000000000000000000000000000000000000000000000000081526004016125919190613409565b60405180910390fd5b7f360894a13ba1a3210667c828492db98dca3e2076cc3735a920a3ca505d382bbc60001b811461260157806040517faa1d49a40000000000000000000000000000000000000000000000000000000081526004016125f89190613368565b60405180910390fd5b61260b8383612c5a565b505050565b7f000000000000000000000000000000000000000000000000000000000000000073ffffffffffffffffffffffffffffffffffffffff163073ffffffffffffffffffffffffffffffffffffffff1614612695576040517fe07c8dba00000000000000000000000000000000000000000000000000000000815260040160405180910390fd5b565b60007ff0c57e16840df040f15088dc2f81fe391c3923bec73e23a9662efc9c229c6a00905090565b6126c7612ccd565b6126d18282612d0d565b5050565b6126dd612ccd565b565b6126e7612ccd565b6126ef612d4a565b565b6126f9612ccd565b565b60007f01ffc9a7000000000000000000000000000000000000000000000000000000007bffffffffffffffffffffffffffffffffffffffffffffffffffffffff1916827bffffffffffffffffffffffffffffffffffffffffffffffffffffffff1916149050919050565b600061276f611e5f565b9050600073ffffffffffffffffffffffffffffffffffffffff168573ffffffffffffffffffffffffffffffffffffffff16036127e35760006040517fe602df050000000000000000000000000000000000000000000000000000000081526004016127da9190613409565b60405180910390fd5b600073ffffffffffffffffffffffffffffffffffffffff168473ffffffffffffffffffffffffffffffffffffffff16036128555760006040517f94280d6200000000000000000000000000000000000000000000000000000000815260040161284c9190613409565b60405180910390fd5b828160010160008773ffffffffffffffffffffffffffffffffffffffff1673ffffffffffffffffffffffffffffffffffffffff16815260200190815260200160002060008673ffffffffffffffffffffffffffffffffffffffff1673ffffffffffffffffffffffffffffffffffffffff168152602001908152602001600020819055508115612944578373ffffffffffffffffffffffffffffffffffffffff168573ffffffffffffffffffffffffffffffffffffffff167f8c5be1e5ebec7d5bd14f71427d1e84f3dd0314c0f7b2291e5b200ac8c7c3b9258560405161293b919061325b565b60405180910390a35b5050505050565b612955828261149d565b6129985780826040517fe2517d3f00000000000000000000000000000000000000000000000000000000815260040161298f929190614157565b60405180910390fd5b5050565b60006129a6611e5f565b9050600073ffffffffffffffffffffffffffffffffffffffff168473ffffffffffffffffffffffffffffffffffffffff16036129fc57818160020160008282546129f091906139a1565b92505081905550612ad5565b60008160000160008673ffffffffffffffffffffffffffffffffffffffff1673ffffffffffffffffffffffffffffffffffffffff16815260200190815260200160002054905082811015612a8b578481846040517fe450d38c000000000000000000000000000000000000000000000000000000008152600401612a82939291906140de565b60405180910390fd5b8281038260000160008773ffffffffffffffffffffffffffffffffffffffff1673ffffffffffffffffffffffffffffffffffffffff16815260200190815260200160002081905550505b600073ffffffffffffffffffffffffffffffffffffffff168373ffffffffffffffffffffffffffffffffffffffff1603612b2057818160020160008282540392505081905550612b70565b818160000160008573ffffffffffffffffffffffffffffffffffffffff1673ffffffffffffffffffffffffffffffffffffffff168152602001908152602001600020600082825401925050819055505b8273ffffffffffffffffffffffffffffffffffffffff168473ffffffffffffffffffffffffffffffffffffffff167fddf252ad1be2c89b69c2b068fc378daa952ba7f163c4a11628f55a4df523b3ef84604051612bcd919061325b565b60405180910390a350505050565b60007f9b779b17422d0df92223018b32b4d1fa46e071723d6817e2486d003becc55f00905090565b6000612c317f360894a13ba1a3210667c828492db98dca3e2076cc3735a920a3ca505d382bbc60001b612d6b565b60000160009054906101000a900473ffffffffffffffffffffffffffffffffffffffff16905090565b612c6382612d75565b8173ffffffffffffffffffffffffffffffffffffffff167fbc7cd75a20ee27fd9adebab32041f755214dbc6bffa90cc0225b39da2e5c2d3b60405160405180910390a2600081511115612cc057612cba8282612e42565b50612cc9565b612cc8612ec6565b5b5050565b612cd5612f03565b612d0b576040517fd7e6bcf800000000000000000000000000000000000000000000000000000000815260040160405180910390fd5b565b612d15612ccd565b6000612d1f611e5f565b905082816003019081612d329190614322565b5081816004019081612d449190614322565b50505050565b612d52612ccd565b6000612d5c612bdb565b90506001816000018190555050565b6000819050919050565b60008173ffffffffffffffffffffffffffffffffffffffff163b03612dd157806040517f4c9c8ce3000000000000000000000000000000000000000000000000000000008152600401612dc89190613409565b60405180910390fd5b80612dfe7f360894a13ba1a3210667c828492db98dca3e2076cc3735a920a3ca505d382bbc60001b612d6b565b60000160006101000a81548173ffffffffffffffffffffffffffffffffffffffff021916908373ffffffffffffffffffffffffffffffffffffffff16021790555050565b60606000808473ffffffffffffffffffffffffffffffffffffffff1684604051612e6c919061443b565b600060405180830381855af49150503d8060008114612ea7576040519150601f19603f3d011682016040523d82523d6000602084013e612eac565b606091505b5091509150612ebc858383612f23565b9250505092915050565b6000341115612f01576040517fb398979f00000000000000000000000000000000000000000000000000000000815260040160405180910390fd5b565b6000612f0d612697565b60000160089054906101000a900460ff16905090565b606082612f3857612f3382612fb2565b612faa565b60008251148015612f60575060008473ffffffffffffffffffffffffffffffffffffffff163b145b15612fa257836040517f9996b315000000000000000000000000000000000000000000000000000000008152600401612f999190613409565b60405180910390fd5b819050612fab565b5b9392505050565b600081511115612fc55780518082602001fd5b6040517fd6bda27500000000000000000000000000000000000000000000000000000000815260040160405180910390fd5b6000604051905090565b600080fd5b600080fd5b60007fffffffff0000000000000000000000000000000000000000000000000000000082169050919050565b6130408161300b565b811461304b57600080fd5b50565b60008135905061305d81613037565b92915050565b60006020828403121561307957613078613001565b5b60006130878482850161304e565b91505092915050565b60008115159050919050565b6130a581613090565b82525050565b60006020820190506130c0600083018461309c565b92915050565b600081519050919050565b600082825260208201905092915050565b60005b838110156131005780820151818401526020810190506130e5565b60008484015250505050565b6000601f19601f8301169050919050565b6000613128826130c6565b61313281856130d1565b93506131428185602086016130e2565b61314b8161310c565b840191505092915050565b60006020820190508181036000830152613170818461311d565b905092915050565b600073ffffffffffffffffffffffffffffffffffffffff82169050919050565b60006131a382613178565b9050919050565b6131b381613198565b81146131be57600080fd5b50565b6000813590506131d0816131aa565b92915050565b6000819050919050565b6131e9816131d6565b81146131f457600080fd5b50565b600081359050613206816131e0565b92915050565b6000806040838503121561322357613222613001565b5b6000613231858286016131c1565b9250506020613242858286016131f7565b9150509250929050565b613255816131d6565b82525050565b6000602082019050613270600083018461324c565b92915050565b60006020828403121561328c5761328b613001565b5b600061329a848285016131f7565b91505092915050565b6000806000606084860312156132bc576132bb613001565b5b60006132ca868287016131c1565b93505060206132db868287016131c1565b92505060406132ec868287016131f7565b9150509250925092565b6000819050919050565b613309816132f6565b811461331457600080fd5b50565b60008135905061332681613300565b92915050565b60006020828403121561334257613341613001565b5b600061335084828501613317565b91505092915050565b613362816132f6565b82525050565b600060208201905061337d6000830184613359565b92915050565b6000806040838503121561339a57613399613001565b5b60006133a885828601613317565b92505060206133b9858286016131c1565b9150509250929050565b600060ff82169050919050565b6133d9816133c3565b82525050565b60006020820190506133f460008301846133d0565b92915050565b61340381613198565b82525050565b600060208201905061341e60008301846133fa565b92915050565b600080fd5b600080fd5b7f4e487b7100000000000000000000000000000000000000000000000000000000600052604160045260246000fd5b6134668261310c565b810181811067ffffffffffffffff821117156134855761348461342e565b5b80604052505050565b6000613498612ff7565b90506134a4828261345d565b919050565b600067ffffffffffffffff8211156134c4576134c361342e565b5b6134cd8261310c565b9050602081019050919050565b82818337600083830152505050565b60006134fc6134f7846134a9565b61348e565b90508281526020810184848401111561351857613517613429565b5b6135238482856134da565b509392505050565b600082601f8301126135405761353f613424565b5b81356135508482602086016134e9565b91505092915050565b600080604083850312156135705761356f613001565b5b600061357e858286016131c1565b925050602083013567ffffffffffffffff81111561359f5761359e613006565b5b6135ab8582860161352b565b9150509250929050565b6000602082840312156135cb576135ca613001565b5b60006135d9848285016131c1565b91505092915050565b600080604083850312156135f9576135f8613001565b5b6000613607858286016131c1565b9250506020613618858286016131c1565b9150509250929050565b7f4e487b7100000000000000000000000000000000000000000000000000000000600052602260045260246000fd5b6000600282049050600182168061366957607f821691505b60208210810361367c5761367b613622565b5b50919050565b7f4275726e20726174652063616e6e6f742065786365656420313030252e000000600082015250565b60006136b8601d836130d1565b91506136c382613682565b602082019050919050565b600060208201905081810360008301526136e7816136ab565b9050919050565b7f4275726e20526174652055706461746500000000000000000000000000000000600082015250565b60006137246010836130d1565b915061372f826136ee565b602082019050919050565b6000604082019050818103600083015261375381613717565b9050613762602083018461324c565b92915050565b7f54656d706f72617279206275726e20726174652063616e6e6f7420657863656560008201527f6420313030252e00000000000000000000000000000000000000000000000000602082015250565b60006137c46027836130d1565b91506137cf82613768565b604082019050919050565b600060208201905081810360008301526137f3816137b7565b9050919050565b7f54656d706f72617279204275726e205261746520557064617465000000000000600082015250565b6000613830601a836130d1565b915061383b826137fa565b602082019050919050565b6000604082019050818103600083015261385f81613823565b905061386e602083018461324c565b92915050565b7f4d696e74696e672069732063757272656e746c792064697361626c65642e0000600082015250565b60006138aa601e836130d1565b91506138b582613874565b602082019050919050565b600060208201905081810360008301526138d98161389d565b9050919050565b7f4d696e7420616d6f756e74206d7573742062652067726561746572207468616e60008201527f207a65726f2e0000000000000000000000000000000000000000000000000000602082015250565b600061393c6026836130d1565b9150613947826138e0565b604082019050919050565b6000602082019050818103600083015261396b8161392f565b9050919050565b7f4e487b7100000000000000000000000000000000000000000000000000000000600052601160045260246000fd5b60006139ac826131d6565b91506139b7836131d6565b92508282019050808211156139cf576139ce613972565b5b92915050565b7f4d696e74696e672065786365656473206361702e000000000000000000000000600082015250565b6000613a0b6014836130d1565b9150613a16826139d5565b602082019050919050565b60006020820190508181036000830152613a3a816139fe565b9050919050565b7f45786365656473206d696e74696e67206c696d69742e00000000000000000000600082015250565b6000613a776016836130d1565b9150613a8282613a41565b602082019050919050565b60006020820190508181036000830152613aa681613a6a565b9050919050565b7f4d696e74696e6720636f6f6c646f776e206163746976652e0000000000000000600082015250565b6000613ae36018836130d1565b9150613aee82613aad565b602082019050919050565b60006020820190508181036000830152613b1281613ad6565b9050919050565b6000613b24826131d6565b9150613b2f836131d6565b9250828202613b3d816131d6565b91508282048414831517613b5457613b53613972565b5b5092915050565b7f4e487b7100000000000000000000000000000000000000000000000000000000600052601260045260246000fd5b6000613b95826131d6565b9150613ba0836131d6565b925082613bb057613baf613b5b565b5b828204905092915050565b6000613bc6826131d6565b9150613bd1836131d6565b9250828203905081811115613be957613be8613972565b5b92915050565b7f4275726e20616d6f756e74206d7573742062652067726561746572207468616e60008201527f207a65726f2e0000000000000000000000000000000000000000000000000000602082015250565b6000613c4b6026836130d1565b9150613c5682613bef565b604082019050919050565b60006020820190508181036000830152613c7a81613c3e565b9050919050565b7f496e73756666696369656e742062616c616e636520746f206275726e2e000000600082015250565b6000613cb7601d836130d1565b9150613cc282613c81565b602082019050919050565b60006020820190508181036000830152613ce681613caa565b9050919050565b7f4d696e74696e6720706572696f64206d7573742062652067726561746572207460008201527f68616e207a65726f2e0000000000000000000000000000000000000000000000602082015250565b6000613d496029836130d1565b9150613d5482613ced565b604082019050919050565b60006020820190508181036000830152613d7881613d3c565b9050919050565b7f4d696e74696e6720506572696f64205570646174650000000000000000000000600082015250565b6000613db56015836130d1565b9150613dc082613d7f565b602082019050919050565b60006040820190508181036000830152613de481613da8565b9050613df3602083018461324c565b92915050565b7f496e76616c6964206d756c74692d7369672077616c6c65742061646472657373600082015250565b6000613e2f6020836130d1565b9150613e3a82613df9565b602082019050919050565b60006020820190508181036000830152613e5e81613e22565b9050919050565b6000604082019050613e7a60008301856133fa565b613e87602083018461324c565b9392505050565b6000819050919050565b600067ffffffffffffffff82169050919050565b6000819050919050565b6000613ed1613ecc613ec784613e8e565b613eac565b613e98565b9050919050565b613ee181613eb6565b82525050565b6000602082019050613efc6000830184613ed8565b92915050565b7f4d696e74696e67206c696d6974206d757374206265206772656174657220746860008201527f616e207a65726f2e000000000000000000000000000000000000000000000000602082015250565b6000613f5e6028836130d1565b9150613f6982613f02565b604082019050919050565b60006020820190508181036000830152613f8d81613f51565b9050919050565b7f4d696e74696e67204c696d697420557064617465000000000000000000000000600082015250565b6000613fca6014836130d1565b9150613fd582613f94565b602082019050919050565b60006040820190508181036000830152613ff981613fbd565b9050614008602083018461324c565b92915050565b6000819050919050565b600061403361402e6140298461400e565b613eac565b6131d6565b9050919050565b61404381614018565b82525050565b600060208201905061405e600083018461403a565b92915050565b7f52657365742054656d706f72617279204275726e205261746500000000000000600082015250565b600061409a6019836130d1565b91506140a582614064565b602082019050919050565b600060408201905081810360008301526140c98161408d565b90506140d8602083018461403a565b92915050565b60006060820190506140f360008301866133fa565b614100602083018561324c565b61410d604083018461324c565b949350505050565b60008151905061412481613300565b92915050565b6000602082840312156141405761413f613001565b5b600061414e84828501614115565b91505092915050565b600060408201905061416c60008301856133fa565b6141796020830184613359565b9392505050565b60008190508160005260206000209050919050565b60006020601f8301049050919050565b600082821b905092915050565b6000600883026141e27fffffffffffffffffffffffffffffffffffffffffffffffffffffffffffffffff826141a5565b6141ec86836141a5565b95508019841693508086168417925050509392505050565b600061421f61421a614215846131d6565b613eac565b6131d6565b9050919050565b6000819050919050565b61423983614204565b61424d61424582614226565b8484546141b2565b825550505050565b600090565b614262614255565b61426d818484614230565b505050565b5b818110156142915761428660008261425a565b600181019050614273565b5050565b601f8211156142d6576142a781614180565b6142b084614195565b810160208510156142bf578190505b6142d36142cb85614195565b830182614272565b50505b505050565b600082821c905092915050565b60006142f9600019846008026142db565b1980831691505092915050565b600061431283836142e8565b9150826002028217905092915050565b61432b826130c6565b67ffffffffffffffff8111156143445761434361342e565b5b61434e8254613651565b614359828285614295565b600060209050601f83116001811461438c576000841561437a578287015190505b6143848582614306565b8655506143ec565b601f19841661439a86614180565b60005b828110156143c25784890151825560018201915060208501945060208101905061439d565b868310156143df57848901516143db601f8916826142e8565b8355505b6001600288020188555050505b505050505050565b600081519050919050565b600081905092915050565b6000614415826143f4565b61441f81856143ff565b935061442f8185602086016130e2565b80840191505092915050565b6000614447828461440a565b91508190509291505056fea26469706673582212206628df40c86549b5d5eb3f0c577e2870758c5c89d3ad278a38b1167bffe22b5464736f6c63430008160033",
  "linkReferences": {},
  "deployedLinkReferences": {}
}